{
  "_format": "hh-sol-artifact-1",
  "contractName": "DimaToken",
  "sourceName": "contracts/DimaToken.sol",
  "abi": [
    {
      "inputs": [
        {
          "internalType": "address",
          "name": "initialOwner",
          "type": "address"
        }
      ],
      "stateMutability": "nonpayable",
      "type": "constructor"
    },
    {
      "inputs": [
        {
          "internalType": "address",
          "name": "sender",
          "type": "address"
        },
        {
          "internalType": "uint256",
          "name": "tokenId",
          "type": "uint256"
        },
        {
          "internalType": "address",
          "name": "owner",
          "type": "address"
        }
      ],
      "name": "ERC721IncorrectOwner",
      "type": "error"
    },
    {
      "inputs": [
        {
          "internalType": "address",
          "name": "operator",
          "type": "address"
        },
        {
          "internalType": "uint256",
          "name": "tokenId",
          "type": "uint256"
        }
      ],
      "name": "ERC721InsufficientApproval",
      "type": "error"
    },
    {
      "inputs": [
        {
          "internalType": "address",
          "name": "approver",
          "type": "address"
        }
      ],
      "name": "ERC721InvalidApprover",
      "type": "error"
    },
    {
      "inputs": [
        {
          "internalType": "address",
          "name": "operator",
          "type": "address"
        }
      ],
      "name": "ERC721InvalidOperator",
      "type": "error"
    },
    {
      "inputs": [
        {
          "internalType": "address",
          "name": "owner",
          "type": "address"
        }
      ],
      "name": "ERC721InvalidOwner",
      "type": "error"
    },
    {
      "inputs": [
        {
          "internalType": "address",
          "name": "receiver",
          "type": "address"
        }
      ],
      "name": "ERC721InvalidReceiver",
      "type": "error"
    },
    {
      "inputs": [
        {
          "internalType": "address",
          "name": "sender",
          "type": "address"
        }
      ],
      "name": "ERC721InvalidSender",
      "type": "error"
    },
    {
      "inputs": [
        {
          "internalType": "uint256",
          "name": "tokenId",
          "type": "uint256"
        }
      ],
      "name": "ERC721NonexistentToken",
      "type": "error"
    },
    {
      "inputs": [
        {
          "internalType": "address",
          "name": "owner",
          "type": "address"
        }
      ],
      "name": "OwnableInvalidOwner",
      "type": "error"
    },
    {
      "inputs": [
        {
          "internalType": "address",
          "name": "account",
          "type": "address"
        }
      ],
      "name": "OwnableUnauthorizedAccount",
      "type": "error"
    },
    {
      "inputs": [
        {
          "internalType": "uint256",
          "name": "requiredPrice",
          "type": "uint256"
        }
      ],
      "name": "SmallSumForMint",
      "type": "error"
    },
    {
      "inputs": [],
      "name": "UnsuccesedWitdraw",
      "type": "error"
    },
    {
      "anonymous": false,
      "inputs": [
        {
          "indexed": true,
          "internalType": "address",
          "name": "owner",
          "type": "address"
        },
        {
          "indexed": true,
          "internalType": "address",
          "name": "approved",
          "type": "address"
        },
        {
          "indexed": true,
          "internalType": "uint256",
          "name": "tokenId",
          "type": "uint256"
        }
      ],
      "name": "Approval",
      "type": "event"
    },
    {
      "anonymous": false,
      "inputs": [
        {
          "indexed": true,
          "internalType": "address",
          "name": "owner",
          "type": "address"
        },
        {
          "indexed": true,
          "internalType": "address",
          "name": "operator",
          "type": "address"
        },
        {
          "indexed": false,
          "internalType": "bool",
          "name": "approved",
          "type": "bool"
        }
      ],
      "name": "ApprovalForAll",
      "type": "event"
    },
    {
      "anonymous": false,
      "inputs": [
        {
          "indexed": false,
          "internalType": "uint256",
          "name": "_fromTokenId",
          "type": "uint256"
        },
        {
          "indexed": false,
          "internalType": "uint256",
          "name": "_toTokenId",
          "type": "uint256"
        }
      ],
      "name": "BatchMetadataUpdate",
      "type": "event"
    },
    {
      "anonymous": false,
      "inputs": [
        {
          "indexed": false,
          "internalType": "uint256",
          "name": "_tokenId",
          "type": "uint256"
        }
      ],
      "name": "MetadataUpdate",
      "type": "event"
    },
    {
      "anonymous": false,
      "inputs": [
        {
          "indexed": true,
          "internalType": "address",
          "name": "previousOwner",
          "type": "address"
        },
        {
          "indexed": true,
          "internalType": "address",
          "name": "newOwner",
          "type": "address"
        }
      ],
      "name": "OwnershipTransferred",
      "type": "event"
    },
    {
      "anonymous": false,
      "inputs": [
        {
          "indexed": true,
          "internalType": "address",
          "name": "from",
          "type": "address"
        },
        {
          "indexed": true,
          "internalType": "address",
          "name": "to",
          "type": "address"
        },
        {
          "indexed": true,
          "internalType": "uint256",
          "name": "tokenId",
          "type": "uint256"
        }
      ],
      "name": "Transfer",
      "type": "event"
    },
    {
      "inputs": [
        {
          "internalType": "address",
          "name": "to",
          "type": "address"
        },
        {
          "internalType": "uint256",
          "name": "tokenId",
          "type": "uint256"
        }
      ],
      "name": "approve",
      "outputs": [],
      "stateMutability": "nonpayable",
      "type": "function"
    },
    {
      "inputs": [
        {
          "internalType": "address",
          "name": "owner",
          "type": "address"
        }
      ],
      "name": "balanceOf",
      "outputs": [
        {
          "internalType": "uint256",
          "name": "",
          "type": "uint256"
        }
      ],
      "stateMutability": "view",
      "type": "function"
    },
    {
      "inputs": [
        {
          "internalType": "uint256",
          "name": "tokenId",
          "type": "uint256"
        }
      ],
      "name": "burn",
      "outputs": [],
      "stateMutability": "nonpayable",
      "type": "function"
    },
    {
      "inputs": [
        {
          "internalType": "uint256",
          "name": "_price",
          "type": "uint256"
        }
      ],
      "name": "changePriceForMint",
      "outputs": [],
      "stateMutability": "nonpayable",
      "type": "function"
    },
    {
      "inputs": [
        {
          "internalType": "uint256",
          "name": "tokenId",
          "type": "uint256"
        }
      ],
      "name": "getApproved",
      "outputs": [
        {
          "internalType": "address",
          "name": "",
          "type": "address"
        }
      ],
      "stateMutability": "view",
      "type": "function"
    },
    {
      "inputs": [
        {
          "internalType": "address",
          "name": "owner",
          "type": "address"
        },
        {
          "internalType": "address",
          "name": "operator",
          "type": "address"
        }
      ],
      "name": "isApprovedForAll",
      "outputs": [
        {
          "internalType": "bool",
          "name": "",
          "type": "bool"
        }
      ],
      "stateMutability": "view",
      "type": "function"
    },
    {
      "inputs": [
        {
          "internalType": "uint256",
          "name": "tokenId",
          "type": "uint256"
        }
      ],
      "name": "mint",
      "outputs": [],
      "stateMutability": "payable",
      "type": "function"
    },
    {
      "inputs": [],
      "name": "name",
      "outputs": [
        {
          "internalType": "string",
          "name": "",
          "type": "string"
        }
      ],
      "stateMutability": "view",
      "type": "function"
    },
    {
      "inputs": [],
      "name": "owner",
      "outputs": [
        {
          "internalType": "address",
          "name": "",
          "type": "address"
        }
      ],
      "stateMutability": "view",
      "type": "function"
    },
    {
      "inputs": [
        {
          "internalType": "uint256",
          "name": "tokenId",
          "type": "uint256"
        }
      ],
      "name": "ownerOf",
      "outputs": [
        {
          "internalType": "address",
          "name": "",
          "type": "address"
        }
      ],
      "stateMutability": "view",
      "type": "function"
    },
    {
      "inputs": [],
      "name": "renounceOwnership",
      "outputs": [],
      "stateMutability": "nonpayable",
      "type": "function"
    },
    {
      "inputs": [
        {
          "internalType": "address",
          "name": "from",
          "type": "address"
        },
        {
          "internalType": "address",
          "name": "to",
          "type": "address"
        },
        {
          "internalType": "uint256",
          "name": "tokenId",
          "type": "uint256"
        }
      ],
      "name": "safeTransferFrom",
      "outputs": [],
      "stateMutability": "nonpayable",
      "type": "function"
    },
    {
      "inputs": [
        {
          "internalType": "address",
          "name": "from",
          "type": "address"
        },
        {
          "internalType": "address",
          "name": "to",
          "type": "address"
        },
        {
          "internalType": "uint256",
          "name": "tokenId",
          "type": "uint256"
        },
        {
          "internalType": "bytes",
          "name": "data",
          "type": "bytes"
        }
      ],
      "name": "safeTransferFrom",
      "outputs": [],
      "stateMutability": "nonpayable",
      "type": "function"
    },
    {
      "inputs": [
        {
          "internalType": "address",
          "name": "operator",
          "type": "address"
        },
        {
          "internalType": "bool",
          "name": "approved",
          "type": "bool"
        }
      ],
      "name": "setApprovalForAll",
      "outputs": [],
      "stateMutability": "nonpayable",
      "type": "function"
    },
    {
      "inputs": [
        {
          "internalType": "bytes4",
          "name": "interfaceId",
          "type": "bytes4"
        }
      ],
      "name": "supportsInterface",
      "outputs": [
        {
          "internalType": "bool",
          "name": "",
          "type": "bool"
        }
      ],
      "stateMutability": "view",
      "type": "function"
    },
    {
      "inputs": [],
      "name": "symbol",
      "outputs": [
        {
          "internalType": "string",
          "name": "",
          "type": "string"
        }
      ],
      "stateMutability": "view",
      "type": "function"
    },
    {
      "inputs": [
        {
          "internalType": "uint256",
          "name": "tokenId",
          "type": "uint256"
        }
      ],
      "name": "tokenURI",
      "outputs": [
        {
          "internalType": "string",
          "name": "",
          "type": "string"
        }
      ],
      "stateMutability": "view",
      "type": "function"
    },
    {
      "inputs": [
        {
          "internalType": "address",
          "name": "from",
          "type": "address"
        },
        {
          "internalType": "address",
          "name": "to",
          "type": "address"
        },
        {
          "internalType": "uint256",
          "name": "tokenId",
          "type": "uint256"
        }
      ],
      "name": "transferFrom",
      "outputs": [],
      "stateMutability": "nonpayable",
      "type": "function"
    },
    {
      "inputs": [
        {
          "internalType": "address",
          "name": "newOwner",
          "type": "address"
        }
      ],
      "name": "transferOwnership",
      "outputs": [],
      "stateMutability": "nonpayable",
      "type": "function"
    },
    {
      "inputs": [],
      "name": "withdrawToOwner",
      "outputs": [],
      "stateMutability": "nonpayable",
      "type": "function"
    }
  ],
  "bytecode": "0x6080604052655af3107a4000600855604051806080016040528060508152602001613b5660509139600990816100359190610fdb565b5034801561004257600080fd5b50604051613ba6380380613ba683398181016040528101906100649190611110565b806040518060400160405280600481526020017f44696d61000000000000000000000000000000000000000000000000000000008152506040518060400160405280600381526020017f444d41000000000000000000000000000000000000000000000000000000000081525081600090816100e09190610fdb565b5080600190816100f09190610fdb565b505050600073ffffffffffffffffffffffffffffffffffffffff168173ffffffffffffffffffffffffffffffffffffffff16036101655760006040517f1e4fbdf700000000000000000000000000000000000000000000000000000000815260040161015c919061114c565b60405180910390fd5b6101748161022760201b60201c565b506101868160006102ed60201b60201c565b61022160016009805461019890610df4565b80601f01602080910402602001604051908101604052809291908181526020018280546101c490610df4565b80156102115780601f106101e657610100808354040283529160200191610211565b820191906000526020600020905b8154815290600101906020018083116101f457829003601f168201915b505050505061031160201b60201c565b5061131b565b6000600760009054906101000a900473ffffffffffffffffffffffffffffffffffffffff16905081600760006101000a81548173ffffffffffffffffffffffffffffffffffffffff021916908373ffffffffffffffffffffffffffffffffffffffff1602179055508173ffffffffffffffffffffffffffffffffffffffff168173ffffffffffffffffffffffffffffffffffffffff167f8be0079c531659141344cd1fd0a4f28419497f9722a3daafe3b4186f6b6457e060405160405180910390a35050565b61030d82826040518060200160405280600081525061036d60201b60201c565b5050565b806006600084815260200190815260200160002090816103319190610fdb565b507ff8e1a15aba9398e019f0b49df1a4fde98ee17ae345cb5f6b5e2c27f5033e8ce7826040516103619190611176565b60405180910390a15050565b61037d83836103a360201b60201c565b61039e61038e6104a260201b60201c565b60008585856104aa60201b60201c565b505050565b600073ffffffffffffffffffffffffffffffffffffffff168273ffffffffffffffffffffffffffffffffffffffff16036104155760006040517f64a0ae9200000000000000000000000000000000000000000000000000000000815260040161040c919061114c565b60405180910390fd5b60006104298383600061065b60201b60201c565b9050600073ffffffffffffffffffffffffffffffffffffffff168173ffffffffffffffffffffffffffffffffffffffff161461049d5760006040517f73c6ac6e000000000000000000000000000000000000000000000000000000008152600401610494919061114c565b60405180910390fd5b505050565b600033905090565b60008373ffffffffffffffffffffffffffffffffffffffff163b1115610654578273ffffffffffffffffffffffffffffffffffffffff1663150b7a02868685856040518563ffffffff1660e01b81526004016105099493929190611221565b6020604051808303816000875af192505050801561054557506040513d601f19601f8201168201806040525081019061054291906112c5565b60015b6105c9573d8060008114610575576040519150601f19603f3d011682016040523d82523d6000602084013e61057a565b606091505b5060008151036105c157836040517f64a0ae920000000000000000000000000000000000000000000000000000000081526004016105b8919061114c565b60405180910390fd5b805181602001fd5b63150b7a0260e01b7bffffffffffffffffffffffffffffffffffffffffffffffffffffffff1916817bffffffffffffffffffffffffffffffffffffffffffffffffffffffff19161461065257836040517f64a0ae92000000000000000000000000000000000000000000000000000000008152600401610649919061114c565b60405180910390fd5b505b5050505050565b60008061066d8461088760201b60201c565b9050600073ffffffffffffffffffffffffffffffffffffffff168373ffffffffffffffffffffffffffffffffffffffff16146106b5576106b48184866108c460201b60201c565b5b600073ffffffffffffffffffffffffffffffffffffffff168173ffffffffffffffffffffffffffffffffffffffff161461074c576106fd60008560008061098e60201b60201c565b6001600360008373ffffffffffffffffffffffffffffffffffffffff1673ffffffffffffffffffffffffffffffffffffffff168152602001908152602001600020600082825403925050819055505b600073ffffffffffffffffffffffffffffffffffffffff168573ffffffffffffffffffffffffffffffffffffffff16146107cf576001600360008773ffffffffffffffffffffffffffffffffffffffff1673ffffffffffffffffffffffffffffffffffffffff168152602001908152602001600020600082825401925050819055505b846002600086815260200190815260200160002060006101000a81548173ffffffffffffffffffffffffffffffffffffffff021916908373ffffffffffffffffffffffffffffffffffffffff160217905550838573ffffffffffffffffffffffffffffffffffffffff168273ffffffffffffffffffffffffffffffffffffffff167fddf252ad1be2c89b69c2b068fc378daa952ba7f163c4a11628f55a4df523b3ef60405160405180910390a4809150509392505050565b60006002600083815260200190815260200160002060009054906101000a900473ffffffffffffffffffffffffffffffffffffffff169050919050565b6108d5838383610b5f60201b60201c565b61098957600073ffffffffffffffffffffffffffffffffffffffff168373ffffffffffffffffffffffffffffffffffffffff160361094a57806040517f7e2732890000000000000000000000000000000000000000000000000000000081526004016109419190611176565b60405180910390fd5b81816040517f177e802f0000000000000000000000000000000000000000000000000000000081526004016109809291906112f2565b60405180910390fd5b505050565b80806109c75750600073ffffffffffffffffffffffffffffffffffffffff168273ffffffffffffffffffffffffffffffffffffffff1614155b15610b075760006109dd84610c2c60201b60201c565b9050600073ffffffffffffffffffffffffffffffffffffffff168373ffffffffffffffffffffffffffffffffffffffff1614158015610a4857508273ffffffffffffffffffffffffffffffffffffffff168173ffffffffffffffffffffffffffffffffffffffff1614155b8015610a615750610a5f8184610cba60201b60201c565b155b15610aa357826040517fa9fbf51f000000000000000000000000000000000000000000000000000000008152600401610a9a919061114c565b60405180910390fd5b8115610b0557838573ffffffffffffffffffffffffffffffffffffffff168273ffffffffffffffffffffffffffffffffffffffff167f8c5be1e5ebec7d5bd14f71427d1e84f3dd0314c0f7b2291e5b200ac8c7c3b92560405160405180910390a45b505b836004600085815260200190815260200160002060006101000a81548173ffffffffffffffffffffffffffffffffffffffff021916908373ffffffffffffffffffffffffffffffffffffffff16021790555050505050565b60008073ffffffffffffffffffffffffffffffffffffffff168373ffffffffffffffffffffffffffffffffffffffff1614158015610c2357508273ffffffffffffffffffffffffffffffffffffffff168473ffffffffffffffffffffffffffffffffffffffff161480610bde5750610bdd8484610cba60201b60201c565b5b80610c2257508273ffffffffffffffffffffffffffffffffffffffff16610c0a83610d4e60201b60201c565b73ffffffffffffffffffffffffffffffffffffffff16145b5b90509392505050565b600080610c3e8361088760201b60201c565b9050600073ffffffffffffffffffffffffffffffffffffffff168173ffffffffffffffffffffffffffffffffffffffff1603610cb157826040517f7e273289000000000000000000000000000000000000000000000000000000008152600401610ca89190611176565b60405180910390fd5b80915050919050565b6000600560008473ffffffffffffffffffffffffffffffffffffffff1673ffffffffffffffffffffffffffffffffffffffff16815260200190815260200160002060008373ffffffffffffffffffffffffffffffffffffffff1673ffffffffffffffffffffffffffffffffffffffff16815260200190815260200160002060009054906101000a900460ff16905092915050565b60006004600083815260200190815260200160002060009054906101000a900473ffffffffffffffffffffffffffffffffffffffff169050919050565b600081519050919050565b7f4e487b7100000000000000000000000000000000000000000000000000000000600052604160045260246000fd5b7f4e487b7100000000000000000000000000000000000000000000000000000000600052602260045260246000fd5b60006002820490506001821680610e0c57607f821691505b602082108103610e1f57610e1e610dc5565b5b50919050565b60008190508160005260206000209050919050565b60006020601f8301049050919050565b600082821b905092915050565b600060088302610e877fffffffffffffffffffffffffffffffffffffffffffffffffffffffffffffffff82610e4a565b610e918683610e4a565b95508019841693508086168417925050509392505050565b6000819050919050565b6000819050919050565b6000610ed8610ed3610ece84610ea9565b610eb3565b610ea9565b9050919050565b6000819050919050565b610ef283610ebd565b610f06610efe82610edf565b848454610e57565b825550505050565b600090565b610f1b610f0e565b610f26818484610ee9565b505050565b5b81811015610f4a57610f3f600082610f13565b600181019050610f2c565b5050565b601f821115610f8f57610f6081610e25565b610f6984610e3a565b81016020851015610f78578190505b610f8c610f8485610e3a565b830182610f2b565b50505b505050565b600082821c905092915050565b6000610fb260001984600802610f94565b1980831691505092915050565b6000610fcb8383610fa1565b9150826002028217905092915050565b610fe482610d8b565b67ffffffffffffffff811115610ffd57610ffc610d96565b5b6110078254610df4565b611012828285610f4e565b600060209050601f8311600181146110455760008415611033578287015190505b61103d8582610fbf565b8655506110a5565b601f19841661105386610e25565b60005b8281101561107b57848901518255600182019150602085019450602081019050611056565b868310156110985784890151611094601f891682610fa1565b8355505b6001600288020188555050505b505050505050565b600080fd5b600073ffffffffffffffffffffffffffffffffffffffff82169050919050565b60006110dd826110b2565b9050919050565b6110ed816110d2565b81146110f857600080fd5b50565b60008151905061110a816110e4565b92915050565b600060208284031215611126576111256110ad565b5b6000611134848285016110fb565b91505092915050565b611146816110d2565b82525050565b6000602082019050611161600083018461113d565b92915050565b61117081610ea9565b82525050565b600060208201905061118b6000830184611167565b92915050565b600081519050919050565b600082825260208201905092915050565b60005b838110156111cb5780820151818401526020810190506111b0565b60008484015250505050565b6000601f19601f8301169050919050565b60006111f382611191565b6111fd818561119c565b935061120d8185602086016111ad565b611216816111d7565b840191505092915050565b6000608082019050611236600083018761113d565b611243602083018661113d565b6112506040830185611167565b818103606083015261126281846111e8565b905095945050505050565b60007fffffffff0000000000000000000000000000000000000000000000000000000082169050919050565b6112a28161126d565b81146112ad57600080fd5b50565b6000815190506112bf81611299565b92915050565b6000602082840312156112db576112da6110ad565b5b60006112e9848285016112b0565b91505092915050565b6000604082019050611307600083018561113d565b6113146020830184611167565b9392505050565b61282c8061132a6000396000f3fe60806040526004361061011f5760003560e01c8063715018a6116100a0578063a8a689f011610064578063a8a689f0146103b0578063b88d4fde146103d9578063c87b56dd14610402578063e985e9c51461043f578063f2fde38b1461047c5761011f565b8063715018a6146102fe5780638da5cb5b1461031557806395d89b4114610340578063a0712d681461036b578063a22cb465146103875761011f565b80633cb40e16116100e75780633cb40e161461021b57806342842e0e1461023257806342966c681461025b5780636352211e1461028457806370a08231146102c15761011f565b806301ffc9a71461012457806306fdde0314610161578063081812fc1461018c578063095ea7b3146101c957806323b872dd146101f2575b600080fd5b34801561013057600080fd5b5061014b60048036038101906101469190611db2565b6104a5565b6040516101589190611dfa565b60405180910390f35b34801561016d57600080fd5b506101766104b7565b6040516101839190611ea5565b60405180910390f35b34801561019857600080fd5b506101b360048036038101906101ae9190611efd565b610549565b6040516101c09190611f6b565b60405180910390f35b3480156101d557600080fd5b506101f060048036038101906101eb9190611fb2565b610565565b005b3480156101fe57600080fd5b5061021960048036038101906102149190611ff2565b61057b565b005b34801561022757600080fd5b5061023061067d565b005b34801561023e57600080fd5b5061025960048036038101906102549190611ff2565b61072b565b005b34801561026757600080fd5b50610282600480360381019061027d9190611efd565b61074b565b005b34801561029057600080fd5b506102ab60048036038101906102a69190611efd565b610762565b6040516102b89190611f6b565b60405180910390f35b3480156102cd57600080fd5b506102e860048036038101906102e39190612045565b610774565b6040516102f59190612081565b60405180910390f35b34801561030a57600080fd5b5061031361082e565b005b34801561032157600080fd5b5061032a610842565b6040516103379190611f6b565b60405180910390f35b34801561034c57600080fd5b5061035561086c565b6040516103629190611ea5565b60405180910390f35b61038560048036038101906103809190611efd565b6108fe565b005b34801561039357600080fd5b506103ae60048036038101906103a991906120c8565b6109e8565b005b3480156103bc57600080fd5b506103d760048036038101906103d29190611efd565b6109fe565b005b3480156103e557600080fd5b5061040060048036038101906103fb919061223d565b610a10565b005b34801561040e57600080fd5b5061042960048036038101906104249190611efd565b610a35565b6040516104369190611ea5565b60405180910390f35b34801561044b57600080fd5b50610466600480360381019061046191906122c0565b610a47565b6040516104739190611dfa565b60405180910390f35b34801561048857600080fd5b506104a3600480360381019061049e9190612045565b610adb565b005b60006104b082610b61565b9050919050565b6060600080546104c69061232f565b80601f01602080910402602001604051908101604052809291908181526020018280546104f29061232f565b801561053f5780601f106105145761010080835404028352916020019161053f565b820191906000526020600020905b81548152906001019060200180831161052257829003601f168201915b5050505050905090565b600061055482610bc2565b5061055e82610c4a565b9050919050565b6105778282610572610c87565b610c8f565b5050565b600073ffffffffffffffffffffffffffffffffffffffff168273ffffffffffffffffffffffffffffffffffffffff16036105ed5760006040517f64a0ae920000000000000000000000000000000000000000000000000000000081526004016105e49190611f6b565b60405180910390fd5b600061060183836105fc610c87565b610ca1565b90508373ffffffffffffffffffffffffffffffffffffffff168173ffffffffffffffffffffffffffffffffffffffff1614610677578382826040517f64283d7b00000000000000000000000000000000000000000000000000000000815260040161066e93929190612360565b60405180910390fd5b50505050565b610685610ebb565b60003373ffffffffffffffffffffffffffffffffffffffff16476040516106ab906123c8565b60006040518083038185875af1925050503d80600081146106e8576040519150601f19603f3d011682016040523d82523d6000602084013e6106ed565b606091505b5050905080610728576040517fa2a3811300000000000000000000000000000000000000000000000000000000815260040160405180910390fd5b50565b61074683838360405180602001604052806000815250610a10565b505050565b61075e600082610759610c87565b610ca1565b5050565b600061076d82610bc2565b9050919050565b60008073ffffffffffffffffffffffffffffffffffffffff168273ffffffffffffffffffffffffffffffffffffffff16036107e75760006040517f89c62b640000000000000000000000000000000000000000000000000000000081526004016107de9190611f6b565b60405180910390fd5b600360008373ffffffffffffffffffffffffffffffffffffffff1673ffffffffffffffffffffffffffffffffffffffff168152602001908152602001600020549050919050565b610836610ebb565b6108406000610f42565b565b6000600760009054906101000a900473ffffffffffffffffffffffffffffffffffffffff16905090565b60606001805461087b9061232f565b80601f01602080910402602001604051908101604052809291908181526020018280546108a79061232f565b80156108f45780601f106108c9576101008083540402835291602001916108f4565b820191906000526020600020905b8154815290600101906020018083116108d757829003601f168201915b5050505050905090565b600854341015610947576008546040517fff673dfa00000000000000000000000000000000000000000000000000000000815260040161093e9190612081565b60405180910390fd5b6109513382611008565b6109e581600980546109629061232f565b80601f016020809104026020016040519081016040528092919081815260200182805461098e9061232f565b80156109db5780601f106109b0576101008083540402835291602001916109db565b820191906000526020600020905b8154815290600101906020018083116109be57829003601f168201915b5050505050611026565b50565b6109fa6109f3610c87565b8383611082565b5050565b610a06610ebb565b8060088190555050565b610a1b84848461057b565b610a2f610a26610c87565b858585856111f1565b50505050565b6060610a40826113a2565b9050919050565b6000600560008473ffffffffffffffffffffffffffffffffffffffff1673ffffffffffffffffffffffffffffffffffffffff16815260200190815260200160002060008373ffffffffffffffffffffffffffffffffffffffff1673ffffffffffffffffffffffffffffffffffffffff16815260200190815260200160002060009054906101000a900460ff16905092915050565b610ae3610ebb565b600073ffffffffffffffffffffffffffffffffffffffff168173ffffffffffffffffffffffffffffffffffffffff1603610b555760006040517f1e4fbdf7000000000000000000000000000000000000000000000000000000008152600401610b4c9190611f6b565b60405180910390fd5b610b5e81610f42565b50565b6000634906490660e01b7bffffffffffffffffffffffffffffffffffffffffffffffffffffffff1916827bffffffffffffffffffffffffffffffffffffffffffffffffffffffff19161480610bbb5750610bba826114b5565b5b9050919050565b600080610bce83611597565b9050600073ffffffffffffffffffffffffffffffffffffffff168173ffffffffffffffffffffffffffffffffffffffff1603610c4157826040517f7e273289000000000000000000000000000000000000000000000000000000008152600401610c389190612081565b60405180910390fd5b80915050919050565b60006004600083815260200190815260200160002060009054906101000a900473ffffffffffffffffffffffffffffffffffffffff169050919050565b600033905090565b610c9c83838360016115d4565b505050565b600080610cad84611597565b9050600073ffffffffffffffffffffffffffffffffffffffff168373ffffffffffffffffffffffffffffffffffffffff1614610cef57610cee818486611799565b5b600073ffffffffffffffffffffffffffffffffffffffff168173ffffffffffffffffffffffffffffffffffffffff1614610d8057610d316000856000806115d4565b6001600360008373ffffffffffffffffffffffffffffffffffffffff1673ffffffffffffffffffffffffffffffffffffffff168152602001908152602001600020600082825403925050819055505b600073ffffffffffffffffffffffffffffffffffffffff168573ffffffffffffffffffffffffffffffffffffffff1614610e03576001600360008773ffffffffffffffffffffffffffffffffffffffff1673ffffffffffffffffffffffffffffffffffffffff168152602001908152602001600020600082825401925050819055505b846002600086815260200190815260200160002060006101000a81548173ffffffffffffffffffffffffffffffffffffffff021916908373ffffffffffffffffffffffffffffffffffffffff160217905550838573ffffffffffffffffffffffffffffffffffffffff168273ffffffffffffffffffffffffffffffffffffffff167fddf252ad1be2c89b69c2b068fc378daa952ba7f163c4a11628f55a4df523b3ef60405160405180910390a4809150509392505050565b610ec3610c87565b73ffffffffffffffffffffffffffffffffffffffff16610ee1610842565b73ffffffffffffffffffffffffffffffffffffffff1614610f4057610f04610c87565b6040517f118cdaa7000000000000000000000000000000000000000000000000000000008152600401610f379190611f6b565b60405180910390fd5b565b6000600760009054906101000a900473ffffffffffffffffffffffffffffffffffffffff16905081600760006101000a81548173ffffffffffffffffffffffffffffffffffffffff021916908373ffffffffffffffffffffffffffffffffffffffff1602179055508173ffffffffffffffffffffffffffffffffffffffff168173ffffffffffffffffffffffffffffffffffffffff167f8be0079c531659141344cd1fd0a4f28419497f9722a3daafe3b4186f6b6457e060405160405180910390a35050565b61102282826040518060200160405280600081525061185d565b5050565b806006600084815260200190815260200160002090816110469190612589565b507ff8e1a15aba9398e019f0b49df1a4fde98ee17ae345cb5f6b5e2c27f5033e8ce7826040516110769190612081565b60405180910390a15050565b600073ffffffffffffffffffffffffffffffffffffffff168273ffffffffffffffffffffffffffffffffffffffff16036110f357816040517f5b08ba180000000000000000000000000000000000000000000000000000000081526004016110ea9190611f6b565b60405180910390fd5b80600560008573ffffffffffffffffffffffffffffffffffffffff1673ffffffffffffffffffffffffffffffffffffffff16815260200190815260200160002060008473ffffffffffffffffffffffffffffffffffffffff1673ffffffffffffffffffffffffffffffffffffffff16815260200190815260200160002060006101000a81548160ff0219169083151502179055508173ffffffffffffffffffffffffffffffffffffffff168373ffffffffffffffffffffffffffffffffffffffff167f17307eab39ab6107e8899845ad3d59bd9653f200f220920489ca2b5937696c31836040516111e49190611dfa565b60405180910390a3505050565b60008373ffffffffffffffffffffffffffffffffffffffff163b111561139b578273ffffffffffffffffffffffffffffffffffffffff1663150b7a02868685856040518563ffffffff1660e01b815260040161125094939291906126b0565b6020604051808303816000875af192505050801561128c57506040513d601f19601f820116820180604052508101906112899190612711565b60015b611310573d80600081146112bc576040519150601f19603f3d011682016040523d82523d6000602084013e6112c1565b606091505b50600081510361130857836040517f64a0ae920000000000000000000000000000000000000000000000000000000081526004016112ff9190611f6b565b60405180910390fd5b805181602001fd5b63150b7a0260e01b7bffffffffffffffffffffffffffffffffffffffffffffffffffffffff1916817bffffffffffffffffffffffffffffffffffffffffffffffffffffffff19161461139957836040517f64a0ae920000000000000000000000000000000000000000000000000000000081526004016113909190611f6b565b60405180910390fd5b505b5050505050565b60606113ad82610bc2565b5060006006600084815260200190815260200160002080546113ce9061232f565b80601f01602080910402602001604051908101604052809291908181526020018280546113fa9061232f565b80156114475780601f1061141c57610100808354040283529160200191611447565b820191906000526020600020905b81548152906001019060200180831161142a57829003601f168201915b505050505090506000611458611881565b9050600081510361146d5781925050506114b0565b6000825111156114a257808260405160200161148a92919061277a565b604051602081830303815290604052925050506114b0565b6114ab84611898565b925050505b919050565b60007f80ac58cd000000000000000000000000000000000000000000000000000000007bffffffffffffffffffffffffffffffffffffffffffffffffffffffff1916827bffffffffffffffffffffffffffffffffffffffffffffffffffffffff1916148061158057507f5b5e139f000000000000000000000000000000000000000000000000000000007bffffffffffffffffffffffffffffffffffffffffffffffffffffffff1916827bffffffffffffffffffffffffffffffffffffffffffffffffffffffff1916145b80611590575061158f82611901565b5b9050919050565b60006002600083815260200190815260200160002060009054906101000a900473ffffffffffffffffffffffffffffffffffffffff169050919050565b808061160d5750600073ffffffffffffffffffffffffffffffffffffffff168273ffffffffffffffffffffffffffffffffffffffff1614155b1561174157600061161d84610bc2565b9050600073ffffffffffffffffffffffffffffffffffffffff168373ffffffffffffffffffffffffffffffffffffffff161415801561168857508273ffffffffffffffffffffffffffffffffffffffff168173ffffffffffffffffffffffffffffffffffffffff1614155b801561169b57506116998184610a47565b155b156116dd57826040517fa9fbf51f0000000000000000000000000000000000000000000000000000000081526004016116d49190611f6b565b60405180910390fd5b811561173f57838573ffffffffffffffffffffffffffffffffffffffff168273ffffffffffffffffffffffffffffffffffffffff167f8c5be1e5ebec7d5bd14f71427d1e84f3dd0314c0f7b2291e5b200ac8c7c3b92560405160405180910390a45b505b836004600085815260200190815260200160002060006101000a81548173ffffffffffffffffffffffffffffffffffffffff021916908373ffffffffffffffffffffffffffffffffffffffff16021790555050505050565b6117a483838361196b565b61185857600073ffffffffffffffffffffffffffffffffffffffff168373ffffffffffffffffffffffffffffffffffffffff160361181957806040517f7e2732890000000000000000000000000000000000000000000000000000000081526004016118109190612081565b60405180910390fd5b81816040517f177e802f00000000000000000000000000000000000000000000000000000000815260040161184f92919061279e565b60405180910390fd5b505050565b6118678383611a2c565b61187c611872610c87565b60008585856111f1565b505050565b606060405180602001604052806000815250905090565b60606118a382610bc2565b5060006118ae611881565b905060008151116118ce57604051806020016040528060008152506118f9565b806118d884611b25565b6040516020016118e992919061277a565b6040516020818303038152906040525b915050919050565b60007f01ffc9a7000000000000000000000000000000000000000000000000000000007bffffffffffffffffffffffffffffffffffffffffffffffffffffffff1916827bffffffffffffffffffffffffffffffffffffffffffffffffffffffff1916149050919050565b60008073ffffffffffffffffffffffffffffffffffffffff168373ffffffffffffffffffffffffffffffffffffffff1614158015611a2357508273ffffffffffffffffffffffffffffffffffffffff168473ffffffffffffffffffffffffffffffffffffffff1614806119e457506119e38484610a47565b5b80611a2257508273ffffffffffffffffffffffffffffffffffffffff16611a0a83610c4a565b73ffffffffffffffffffffffffffffffffffffffff16145b5b90509392505050565b600073ffffffffffffffffffffffffffffffffffffffff168273ffffffffffffffffffffffffffffffffffffffff1603611a9e5760006040517f64a0ae92000000000000000000000000000000000000000000000000000000008152600401611a959190611f6b565b60405180910390fd5b6000611aac83836000610ca1565b9050600073ffffffffffffffffffffffffffffffffffffffff168173ffffffffffffffffffffffffffffffffffffffff1614611b205760006040517f73c6ac6e000000000000000000000000000000000000000000000000000000008152600401611b179190611f6b565b60405180910390fd5b505050565b606060006001611b3484611bf3565b01905060008167ffffffffffffffff811115611b5357611b52612112565b5b6040519080825280601f01601f191660200182016040528015611b855781602001600182028036833780820191505090505b509050600082602001820190505b600115611be8578080600190039150507f3031323334353637383961626364656600000000000000000000000000000000600a86061a8153600a8581611bdc57611bdb6127c7565b5b04945060008503611b93575b819350505050919050565b600080600090507a184f03e93ff9f4daa797ed6e38ed64bf6a1f0100000000000000008310611c51577a184f03e93ff9f4daa797ed6e38ed64bf6a1f0100000000000000008381611c4757611c466127c7565b5b0492506040810190505b6d04ee2d6d415b85acef81000000008310611c8e576d04ee2d6d415b85acef81000000008381611c8457611c836127c7565b5b0492506020810190505b662386f26fc100008310611cbd57662386f26fc100008381611cb357611cb26127c7565b5b0492506010810190505b6305f5e1008310611ce6576305f5e1008381611cdc57611cdb6127c7565b5b0492506008810190505b6127108310611d0b576127108381611d0157611d006127c7565b5b0492506004810190505b60648310611d2e5760648381611d2457611d236127c7565b5b0492506002810190505b600a8310611d3d576001810190505b80915050919050565b6000604051905090565b600080fd5b600080fd5b60007fffffffff0000000000000000000000000000000000000000000000000000000082169050919050565b611d8f81611d5a565b8114611d9a57600080fd5b50565b600081359050611dac81611d86565b92915050565b600060208284031215611dc857611dc7611d50565b5b6000611dd684828501611d9d565b91505092915050565b60008115159050919050565b611df481611ddf565b82525050565b6000602082019050611e0f6000830184611deb565b92915050565b600081519050919050565b600082825260208201905092915050565b60005b83811015611e4f578082015181840152602081019050611e34565b60008484015250505050565b6000601f19601f8301169050919050565b6000611e7782611e15565b611e818185611e20565b9350611e91818560208601611e31565b611e9a81611e5b565b840191505092915050565b60006020820190508181036000830152611ebf8184611e6c565b905092915050565b6000819050919050565b611eda81611ec7565b8114611ee557600080fd5b50565b600081359050611ef781611ed1565b92915050565b600060208284031215611f1357611f12611d50565b5b6000611f2184828501611ee8565b91505092915050565b600073ffffffffffffffffffffffffffffffffffffffff82169050919050565b6000611f5582611f2a565b9050919050565b611f6581611f4a565b82525050565b6000602082019050611f806000830184611f5c565b92915050565b611f8f81611f4a565b8114611f9a57600080fd5b50565b600081359050611fac81611f86565b92915050565b60008060408385031215611fc957611fc8611d50565b5b6000611fd785828601611f9d565b9250506020611fe885828601611ee8565b9150509250929050565b60008060006060848603121561200b5761200a611d50565b5b600061201986828701611f9d565b935050602061202a86828701611f9d565b925050604061203b86828701611ee8565b9150509250925092565b60006020828403121561205b5761205a611d50565b5b600061206984828501611f9d565b91505092915050565b61207b81611ec7565b82525050565b60006020820190506120966000830184612072565b92915050565b6120a581611ddf565b81146120b057600080fd5b50565b6000813590506120c28161209c565b92915050565b600080604083850312156120df576120de611d50565b5b60006120ed85828601611f9d565b92505060206120fe858286016120b3565b9150509250929050565b600080fd5b600080fd5b7f4e487b7100000000000000000000000000000000000000000000000000000000600052604160045260246000fd5b61214a82611e5b565b810181811067ffffffffffffffff8211171561216957612168612112565b5b80604052505050565b600061217c611d46565b90506121888282612141565b919050565b600067ffffffffffffffff8211156121a8576121a7612112565b5b6121b182611e5b565b9050602081019050919050565b82818337600083830152505050565b60006121e06121db8461218d565b612172565b9050828152602081018484840111156121fc576121fb61210d565b5b6122078482856121be565b509392505050565b600082601f83011261222457612223612108565b5b81356122348482602086016121cd565b91505092915050565b6000806000806080858703121561225757612256611d50565b5b600061226587828801611f9d565b945050602061227687828801611f9d565b935050604061228787828801611ee8565b925050606085013567ffffffffffffffff8111156122a8576122a7611d55565b5b6122b48782880161220f565b91505092959194509250565b600080604083850312156122d7576122d6611d50565b5b60006122e585828601611f9d565b92505060206122f685828601611f9d565b9150509250929050565b7f4e487b7100000000000000000000000000000000000000000000000000000000600052602260045260246000fd5b6000600282049050600182168061234757607f821691505b60208210810361235a57612359612300565b5b50919050565b60006060820190506123756000830186611f5c565b6123826020830185612072565b61238f6040830184611f5c565b949350505050565b600081905092915050565b50565b60006123b2600083612397565b91506123bd826123a2565b600082019050919050565b60006123d3826123a5565b9150819050919050565b60008190508160005260206000209050919050565b60006020601f8301049050919050565b600082821b905092915050565b60006008830261243f7fffffffffffffffffffffffffffffffffffffffffffffffffffffffffffffffff82612402565b6124498683612402565b95508019841693508086168417925050509392505050565b6000819050919050565b600061248661248161247c84611ec7565b612461565b611ec7565b9050919050565b6000819050919050565b6124a08361246b565b6124b46124ac8261248d565b84845461240f565b825550505050565b600090565b6124c96124bc565b6124d4818484612497565b505050565b5b818110156124f8576124ed6000826124c1565b6001810190506124da565b5050565b601f82111561253d5761250e816123dd565b612517846123f2565b81016020851015612526578190505b61253a612532856123f2565b8301826124d9565b50505b505050565b600082821c905092915050565b600061256060001984600802612542565b1980831691505092915050565b6000612579838361254f565b9150826002028217905092915050565b61259282611e15565b67ffffffffffffffff8111156125ab576125aa612112565b5b6125b5825461232f565b6125c08282856124fc565b600060209050601f8311600181146125f357600084156125e1578287015190505b6125eb858261256d565b865550612653565b601f198416612601866123dd565b60005b8281101561262957848901518255600182019150602085019450602081019050612604565b868310156126465784890151612642601f89168261254f565b8355505b6001600288020188555050505b505050505050565b600081519050919050565b600082825260208201905092915050565b60006126828261265b565b61268c8185612666565b935061269c818560208601611e31565b6126a581611e5b565b840191505092915050565b60006080820190506126c56000830187611f5c565b6126d26020830186611f5c565b6126df6040830185612072565b81810360608301526126f18184612677565b905095945050505050565b60008151905061270b81611d86565b92915050565b60006020828403121561272757612726611d50565b5b6000612735848285016126fc565b91505092915050565b600081905092915050565b600061275482611e15565b61275e818561273e565b935061276e818560208601611e31565b80840191505092915050565b60006127868285612749565b91506127928284612749565b91508190509392505050565b60006040820190506127b36000830185611f5c565b6127c06020830184612072565b9392505050565b7f4e487b7100000000000000000000000000000000000000000000000000000000600052601260045260246000fdfea26469706673582212206c9997e86abb267a572997e2c339320d904e2a6d2d6e7e795a5b0e24de042c3e64736f6c634300081c003368747470733a2f2f697066732e696f2f697066732f6261666b72656965766769626935357a6e66756279743775347a65683435627133766b68336a793362736e6b706a376564616d6f73346a72657069",
  "linkReferences": {},
  "deployedLinkReferences": {}
}